{
  "_format": "hh-sol-artifact-1",
  "contractName": "NFT",
  "sourceName": "contracts/NFT.sol",
  "abi": [
    {
      "inputs": [
        {
          "internalType": "string",
          "name": "_initNotRevealedURI",
          "type": "string"
        }
      ],
      "stateMutability": "nonpayable",
      "type": "constructor"
    },
    {
      "anonymous": false,
      "inputs": [
        {
          "indexed": true,
          "internalType": "address",
          "name": "owner",
          "type": "address"
        },
        {
          "indexed": true,
          "internalType": "address",
          "name": "approved",
          "type": "address"
        },
        {
          "indexed": true,
          "internalType": "uint256",
          "name": "tokenId",
          "type": "uint256"
        }
      ],
      "name": "Approval",
      "type": "event"
    },
    {
      "anonymous": false,
      "inputs": [
        {
          "indexed": true,
          "internalType": "address",
          "name": "owner",
          "type": "address"
        },
        {
          "indexed": true,
          "internalType": "address",
          "name": "operator",
          "type": "address"
        },
        {
          "indexed": false,
          "internalType": "bool",
          "name": "approved",
          "type": "bool"
        }
      ],
      "name": "ApprovalForAll",
      "type": "event"
    },
    {
      "anonymous": false,
      "inputs": [
        {
          "indexed": true,
          "internalType": "address",
          "name": "previousOwner",
          "type": "address"
        },
        {
          "indexed": true,
          "internalType": "address",
          "name": "newOwner",
          "type": "address"
        }
      ],
      "name": "OwnershipTransferred",
      "type": "event"
    },
    {
      "anonymous": false,
      "inputs": [
        {
          "indexed": true,
          "internalType": "address",
          "name": "from",
          "type": "address"
        },
        {
          "indexed": true,
          "internalType": "address",
          "name": "to",
          "type": "address"
        },
        {
          "indexed": true,
          "internalType": "uint256",
          "name": "tokenId",
          "type": "uint256"
        }
      ],
      "name": "Transfer",
      "type": "event"
    },
    {
      "inputs": [
        {
          "internalType": "address[]",
          "name": "_users",
          "type": "address[]"
        }
      ],
      "name": "airdrop",
      "outputs": [],
      "stateMutability": "nonpayable",
      "type": "function"
    },
    {
      "inputs": [
        {
          "internalType": "address",
          "name": "to",
          "type": "address"
        },
        {
          "internalType": "uint256",
          "name": "tokenId",
          "type": "uint256"
        }
      ],
      "name": "approve",
      "outputs": [],
      "stateMutability": "nonpayable",
      "type": "function"
    },
    {
      "inputs": [
        {
          "internalType": "address",
          "name": "owner",
          "type": "address"
        }
      ],
      "name": "balanceOf",
      "outputs": [
        {
          "internalType": "uint256",
          "name": "",
          "type": "uint256"
        }
      ],
      "stateMutability": "view",
      "type": "function"
    },
    {
      "inputs": [],
      "name": "baseURI",
      "outputs": [
        {
          "internalType": "string",
          "name": "",
          "type": "string"
        }
      ],
      "stateMutability": "view",
      "type": "function"
    },
    {
      "inputs": [
        {
          "internalType": "uint256",
          "name": "tokenId",
          "type": "uint256"
        }
      ],
      "name": "getApproved",
      "outputs": [
        {
          "internalType": "address",
          "name": "",
          "type": "address"
        }
      ],
      "stateMutability": "view",
      "type": "function"
    },
    {
      "inputs": [
        {
          "internalType": "address",
          "name": "owner",
          "type": "address"
        },
        {
          "internalType": "address",
          "name": "operator",
          "type": "address"
        }
      ],
      "name": "isApprovedForAll",
      "outputs": [
        {
          "internalType": "bool",
          "name": "",
          "type": "bool"
        }
      ],
      "stateMutability": "view",
      "type": "function"
    },
    {
      "inputs": [
        {
          "internalType": "address",
          "name": "_user",
          "type": "address"
        }
      ],
      "name": "isWhitelisted",
      "outputs": [
        {
          "internalType": "bool",
          "name": "",
          "type": "bool"
        }
      ],
      "stateMutability": "view",
      "type": "function"
    },
    {
      "inputs": [
        {
          "internalType": "uint256",
          "name": "_mintAmount",
          "type": "uint256"
        }
      ],
      "name": "mintPreSale",
      "outputs": [],
      "stateMutability": "payable",
      "type": "function"
    },
    {
      "inputs": [
        {
          "internalType": "uint256",
          "name": "_mintAmount",
          "type": "uint256"
        }
      ],
      "name": "mintPublicSale",
      "outputs": [],
      "stateMutability": "payable",
      "type": "function"
    },
    {
      "inputs": [],
      "name": "name",
      "outputs": [
        {
          "internalType": "string",
          "name": "",
          "type": "string"
        }
      ],
      "stateMutability": "view",
      "type": "function"
    },
    {
      "inputs": [],
      "name": "notRevealedURI",
      "outputs": [
        {
          "internalType": "string",
          "name": "",
          "type": "string"
        }
      ],
      "stateMutability": "view",
      "type": "function"
    },
    {
      "inputs": [],
      "name": "owner",
      "outputs": [
        {
          "internalType": "address",
          "name": "",
          "type": "address"
        }
      ],
      "stateMutability": "view",
      "type": "function"
    },
    {
      "inputs": [
        {
          "internalType": "uint256",
          "name": "tokenId",
          "type": "uint256"
        }
      ],
      "name": "ownerOf",
      "outputs": [
        {
          "internalType": "address",
          "name": "",
          "type": "address"
        }
      ],
      "stateMutability": "view",
      "type": "function"
    },
    {
      "inputs": [],
      "name": "paused",
      "outputs": [
        {
          "internalType": "bool",
          "name": "",
          "type": "bool"
        }
      ],
      "stateMutability": "view",
      "type": "function"
    },
    {
      "inputs": [],
      "name": "presale",
      "outputs": [
        {
          "internalType": "bool",
          "name": "",
          "type": "bool"
        }
      ],
      "stateMutability": "view",
      "type": "function"
    },
    {
      "inputs": [],
      "name": "renounceOwnership",
      "outputs": [],
      "stateMutability": "nonpayable",
      "type": "function"
    },
    {
      "inputs": [],
      "name": "revealURI",
      "outputs": [],
      "stateMutability": "nonpayable",
      "type": "function"
    },
    {
      "inputs": [],
      "name": "revealed",
      "outputs": [
        {
          "internalType": "bool",
          "name": "",
          "type": "bool"
        }
      ],
      "stateMutability": "view",
      "type": "function"
    },
    {
      "inputs": [
        {
          "internalType": "address",
          "name": "from",
          "type": "address"
        },
        {
          "internalType": "address",
          "name": "to",
          "type": "address"
        },
        {
          "internalType": "uint256",
          "name": "tokenId",
          "type": "uint256"
        }
      ],
      "name": "safeTransferFrom",
      "outputs": [],
      "stateMutability": "nonpayable",
      "type": "function"
    },
    {
      "inputs": [
        {
          "internalType": "address",
          "name": "from",
          "type": "address"
        },
        {
          "internalType": "address",
          "name": "to",
          "type": "address"
        },
        {
          "internalType": "uint256",
          "name": "tokenId",
          "type": "uint256"
        },
        {
          "internalType": "bytes",
          "name": "_data",
          "type": "bytes"
        }
      ],
      "name": "safeTransferFrom",
      "outputs": [],
      "stateMutability": "nonpayable",
      "type": "function"
    },
    {
      "inputs": [
        {
          "internalType": "address",
          "name": "operator",
          "type": "address"
        },
        {
          "internalType": "bool",
          "name": "approved",
          "type": "bool"
        }
      ],
      "name": "setApprovalForAll",
      "outputs": [],
      "stateMutability": "nonpayable",
      "type": "function"
    },
    {
      "inputs": [
        {
          "internalType": "string",
          "name": "_newBaseURI",
          "type": "string"
        }
      ],
      "name": "setBaseURI",
      "outputs": [],
      "stateMutability": "nonpayable",
      "type": "function"
    },
    {
      "inputs": [
        {
          "internalType": "string",
          "name": "_notRevealedURI",
          "type": "string"
        }
      ],
      "name": "setNotRevealedURI",
      "outputs": [],
      "stateMutability": "nonpayable",
      "type": "function"
    },
    {
      "inputs": [
        {
          "internalType": "bool",
          "name": "_paused",
          "type": "bool"
        }
      ],
      "name": "setPaused",
      "outputs": [],
      "stateMutability": "nonpayable",
      "type": "function"
    },
    {
      "inputs": [
        {
          "internalType": "bool",
          "name": "_presale",
          "type": "bool"
        }
      ],
      "name": "setPresale",
      "outputs": [],
      "stateMutability": "nonpayable",
      "type": "function"
    },
    {
      "inputs": [
        {
          "internalType": "address[]",
          "name": "_users",
          "type": "address[]"
        }
      ],
      "name": "setWhitelist",
      "outputs": [],
      "stateMutability": "nonpayable",
      "type": "function"
    },
    {
      "inputs": [
        {
          "internalType": "bytes4",
          "name": "interfaceId",
          "type": "bytes4"
        }
      ],
      "name": "supportsInterface",
      "outputs": [
        {
          "internalType": "bool",
          "name": "",
          "type": "bool"
        }
      ],
      "stateMutability": "view",
      "type": "function"
    },
    {
      "inputs": [],
      "name": "symbol",
      "outputs": [
        {
          "internalType": "string",
          "name": "",
          "type": "string"
        }
      ],
      "stateMutability": "view",
      "type": "function"
    },
    {
      "inputs": [
        {
          "internalType": "uint256",
          "name": "tokenId",
          "type": "uint256"
        }
      ],
      "name": "tokenURI",
      "outputs": [
        {
          "internalType": "string",
          "name": "",
          "type": "string"
        }
      ],
      "stateMutability": "view",
      "type": "function"
    },
    {
      "inputs": [],
      "name": "totalSupply",
      "outputs": [
        {
          "internalType": "uint256",
          "name": "",
          "type": "uint256"
        }
      ],
      "stateMutability": "view",
      "type": "function"
    },
    {
      "inputs": [
        {
          "internalType": "address",
          "name": "from",
          "type": "address"
        },
        {
          "internalType": "address",
          "name": "to",
          "type": "address"
        },
        {
          "internalType": "uint256",
          "name": "tokenId",
          "type": "uint256"
        }
      ],
      "name": "transferFrom",
      "outputs": [],
      "stateMutability": "nonpayable",
      "type": "function"
    },
    {
      "inputs": [
        {
          "internalType": "address",
          "name": "newOwner",
          "type": "address"
        }
      ],
      "name": "transferOwnership",
      "outputs": [],
      "stateMutability": "nonpayable",
      "type": "function"
    },
    {
      "inputs": [],
      "name": "withdraw",
      "outputs": [],
      "stateMutability": "nonpayable",
      "type": "function"
    }
  ],
  "bytecode": "0x6080604052600c805461ffff19166101011790553480156200002057600080fd5b5060405162002833380380620028338339810160408190526200004391620001e3565b604080518082018252600c81526b4c6f73742056696c6c61676560a01b602080830191825283518085019094526003845262564c4760e81b90840152815191929162000092916000916200013d565b508051620000a89060019060208401906200013d565b505050620000c5620000bf620000e760201b60201c565b620000eb565b60016007558051620000df90600a9060208401906200013d565b50506200030c565b3390565b600680546001600160a01b038381166001600160a01b0319831681179093556040519116919082907f8be0079c531659141344cd1fd0a4f28419497f9722a3daafe3b4186f6b6457e090600090a35050565b8280546200014b90620002b9565b90600052602060002090601f0160209004810192826200016f5760008555620001ba565b82601f106200018a57805160ff1916838001178555620001ba565b82800160010185558215620001ba579182015b82811115620001ba5782518255916020019190600101906200019d565b50620001c8929150620001cc565b5090565b5b80821115620001c85760008155600101620001cd565b60006020808385031215620001f6578182fd5b82516001600160401b03808211156200020d578384fd5b818501915085601f83011262000221578384fd5b815181811115620002365762000236620002f6565b604051601f8201601f19908116603f01168101908382118183101715620002615762000261620002f6565b81604052828152888684870101111562000279578687fd5b8693505b828410156200029c57848401860151818501870152928501926200027d565b82841115620002ad57868684830101525b98975050505050505050565b600181811c90821680620002ce57607f821691505b60208210811415620002f057634e487b7160e01b600052602260045260246000fd5b50919050565b634e487b7160e01b600052604160045260246000fd5b612517806200031c6000396000f3fe6080604052600436106101ee5760003560e01c80636c0360eb1161010d578063b88d4fde116100a0578063e985e9c51161006f578063e985e9c51461055c578063f2c4ce1e146105a5578063f2fde38b146105c5578063f4217648146105e5578063fdea8e0b1461060557600080fd5b8063b88d4fde146104e9578063b988477214610509578063c54e73e31461051c578063c87b56dd1461053c57600080fd5b8063729ad39e116100dc578063729ad39e146104765780638da5cb5b1461049657806395d89b41146104b4578063a22cb465146104c957600080fd5b80636c0360eb1461041757806370a082311461042c578063715018a61461044c578063722503801461046157600080fd5b80633af32abf1161018557806355f804b31161015457806355f804b3146103aa5780635a5e5d58146103ca5780635c975abb146103dd5780636352211e146103f757600080fd5b80633af32abf1461031c5780633ccfd60b1461035557806342842e0e1461036a578063518302271461038a57600080fd5b8063160fba56116101c1578063160fba56146102a457806316c38b3c146102b957806318160ddd146102d957806323b872dd146102fc57600080fd5b806301ffc9a7146101f357806306fdde0314610228578063081812fc1461024a578063095ea7b314610282575b600080fd5b3480156101ff57600080fd5b5061021361020e3660046120dc565b610624565b60405190151581526020015b60405180910390f35b34801561023457600080fd5b5061023d610676565b60405161021f9190612275565b34801561025657600080fd5b5061026a6102653660046121b5565b610708565b6040516001600160a01b03909116815260200161021f565b34801561028e57600080fd5b506102a261029d366004611f7a565b6107a2565b005b3480156102b057600080fd5b506102a26108b8565b3480156102c557600080fd5b506102a26102d43660046120c2565b6108f5565b3480156102e557600080fd5b506102ee610932565b60405190815260200161021f565b34801561030857600080fd5b506102a2610317366004611e9d565b610942565b34801561032857600080fd5b50610213610337366004611e4a565b6001600160a01b03166000908152600d602052604090205460ff1690565b34801561036157600080fd5b506102a2610973565b34801561037657600080fd5b506102a2610385366004611e9d565b610a11565b34801561039657600080fd5b50600c546102139062010000900460ff1681565b3480156103b657600080fd5b506102a26103c5366004612114565b610a2c565b6102a26103d83660046121b5565b610a62565b3480156103e957600080fd5b50600c546102139060ff1681565b34801561040357600080fd5b5061026a6104123660046121b5565b610b13565b34801561042357600080fd5b5061023d610b8a565b34801561043857600080fd5b506102ee610447366004611e4a565b610c18565b34801561045857600080fd5b506102a2610c9f565b34801561046d57600080fd5b5061023d610cd5565b34801561048257600080fd5b506102a2610491366004612013565b610ce2565b3480156104a257600080fd5b506006546001600160a01b031661026a565b3480156104c057600080fd5b5061023d610e42565b3480156104d557600080fd5b506102a26104e4366004611f51565b610e51565b3480156104f557600080fd5b506102a2610504366004611ed8565b610e5c565b6102a26105173660046121b5565b610e94565b34801561052857600080fd5b506102a26105373660046120c2565b610fad565b34801561054857600080fd5b5061023d6105573660046121b5565b610ff1565b34801561056857600080fd5b50610213610577366004611e6b565b6001600160a01b03918216600090815260056020908152604080832093909416825291909152205460ff1690565b3480156105b157600080fd5b506102a26105c036600461216f565b611131565b3480156105d157600080fd5b506102a26105e0366004611e4a565b61116e565b3480156105f157600080fd5b506102a2610600366004611fa3565b611206565b34801561061157600080fd5b50600c5461021390610100900460ff1681565b60006001600160e01b031982166380ac58cd60e01b148061065557506001600160e01b03198216635b5e139f60e01b145b8061067057506301ffc9a760e01b6001600160e01b03198316145b92915050565b6060600080546106859061241f565b80601f01602080910402602001604051908101604052809291908181526020018280546106b19061241f565b80156106fe5780601f106106d3576101008083540402835291602001916106fe565b820191906000526020600020905b8154815290600101906020018083116106e157829003601f168201915b5050505050905090565b6000818152600260205260408120546001600160a01b03166107865760405162461bcd60e51b815260206004820152602c60248201527f4552433732313a20617070726f76656420717565727920666f72206e6f6e657860448201526b34b9ba32b73a103a37b5b2b760a11b60648201526084015b60405180910390fd5b506000908152600460205260409020546001600160a01b031690565b60006107ad82610b13565b9050806001600160a01b0316836001600160a01b0316141561081b5760405162461bcd60e51b815260206004820152602160248201527f4552433732313a20617070726f76616c20746f2063757272656e74206f776e656044820152603960f91b606482015260840161077d565b336001600160a01b038216148061083757506108378133610577565b6108a95760405162461bcd60e51b815260206004820152603860248201527f4552433732313a20617070726f76652063616c6c6572206973206e6f74206f7760448201527f6e6572206e6f7220617070726f76656420666f7220616c6c0000000000000000606482015260840161077d565b6108b383836112b0565b505050565b6006546001600160a01b031633146108e25760405162461bcd60e51b815260040161077d906122da565b600c805462ff0000191662010000179055565b6006546001600160a01b0316331461091f5760405162461bcd60e51b815260040161077d906122da565b600c805460ff1916911515919091179055565b600061093d60085490565b905090565b61094c338261131e565b6109685760405162461bcd60e51b815260040161077d9061230f565b6108b3838383611415565b6006546001600160a01b0316331461099d5760405162461bcd60e51b815260040161077d906122da565b60006109b16006546001600160a01b031690565b6001600160a01b03164760405160006040518083038185875af1925050503d80600081146109fb576040519150601f19603f3d011682016040523d82523d6000602084013e610a00565b606091505b5050905080610a0e57600080fd5b50565b6108b383838360405180602001604052806000815250610e5c565b6006546001600160a01b03163314610a565760405162461bcd60e51b815260040161077d906122da565b6108b360098383611cb9565b80610a7381655af3107a40006123bd565b3414610aba5760405162461bcd60e51b8152602060048201526016602482015275125b98dbdc9c9958dd08195d1a195c88185b5bdd5b9d60521b604482015260640161077d565b600c54610100900460ff1615610b065760405162461bcd60e51b815260206004820152601160248201527050726573616c652069732061637469766560781b604482015260640161077d565b610b0f826115b5565b5050565b6000818152600260205260408120546001600160a01b0316806106705760405162461bcd60e51b815260206004820152602960248201527f4552433732313a206f776e657220717565727920666f72206e6f6e657869737460448201526832b73a103a37b5b2b760b91b606482015260840161077d565b60098054610b979061241f565b80601f0160208091040260200160405190810160405280929190818152602001828054610bc39061241f565b8015610c105780601f10610be557610100808354040283529160200191610c10565b820191906000526020600020905b815481529060010190602001808311610bf357829003601f168201915b505050505081565b60006001600160a01b038216610c835760405162461bcd60e51b815260206004820152602a60248201527f4552433732313a2062616c616e636520717565727920666f7220746865207a65604482015269726f206164647265737360b01b606482015260840161077d565b506001600160a01b031660009081526003602052604090205490565b6006546001600160a01b03163314610cc95760405162461bcd60e51b815260040161077d906122da565b610cd360006117a0565b565b600a8054610b979061241f565b6006546001600160a01b03163314610d0c5760405162461bcd60e51b815260040161077d906122da565b60026007541415610d5f5760405162461bcd60e51b815260206004820152601f60248201527f5265656e7472616e637947756172643a207265656e7472616e742063616c6c00604482015260640161077d565b60026007558051610dac90610d7360085490565b610d7d9190612391565b1115610dcb5760405162461bcd60e51b815260206004820152601960248201527f4e6f742074686973206d616e7920746f6b656e73206c65667400000000000000604482015260640161077d565b60015b81518111610e3957610de4600880546001019055565b610e2782610df36001846123dc565b81518110610e1157634e487b7160e01b600052603260045260246000fd5b6020026020010151610e2260085490565b6117f2565b80610e318161245a565b915050610dce565b50506001600755565b6060600180546106859061241f565b610b0f33838361180c565b610e66338361131e565b610e825760405162461bcd60e51b815260040161077d9061230f565b610e8e848484846118db565b50505050565b80610ea581655af3107a40006123bd565b3414610eec5760405162461bcd60e51b8152602060048201526016602482015275125b98dbdc9c9958dd08195d1a195c88185b5bdd5b9d60521b604482015260640161077d565b600c54610100900460ff16610f3b5760405162461bcd60e51b815260206004820152601560248201527450726573616c65206973206e6f742061637469766560581b604482015260640161077d565b336000908152600d602052604090205460ff16610b065760405162461bcd60e51b815260206004820152602a60248201527f536f7272792c206e6f2061636365737320756e6c65737320796f7527726520776044820152691a1a5d195b1a5cdd195960b21b606482015260840161077d565b6006546001600160a01b03163314610fd75760405162461bcd60e51b815260040161077d906122da565b600c80549115156101000261ff0019909216919091179055565b6000818152600260205260409020546060906001600160a01b03166110515760405162461bcd60e51b81526020600482015260166024820152751d1bdad95b925108191bd95cc81b9bdd08195e1a5cdd60521b604482015260640161077d565b600c5462010000900460ff166110f357600a805461106e9061241f565b80601f016020809104026020016040519081016040528092919081815260200182805461109a9061241f565b80156110e75780601f106110bc576101008083540402835291602001916110e7565b820191906000526020600020905b8154815290600101906020018083116110ca57829003601f168201915b50505050509050919050565b60006110fd61190e565b9050806111098461191d565b60405160200161111a9291906121f9565b604051602081830303815290604052915050919050565b6006546001600160a01b0316331461115b5760405162461bcd60e51b815260040161077d906122da565b8051610b0f90600a906020840190611d3d565b6006546001600160a01b031633146111985760405162461bcd60e51b815260040161077d906122da565b6001600160a01b0381166111fd5760405162461bcd60e51b815260206004820152602660248201527f4f776e61626c653a206e6577206f776e657220697320746865207a65726f206160448201526564647265737360d01b606482015260840161077d565b610a0e816117a0565b6006546001600160a01b031633146112305760405162461bcd60e51b815260040161077d906122da565b60005b818110156108b3576001600d600085858581811061126157634e487b7160e01b600052603260045260246000fd5b90506020020160208101906112769190611e4a565b6001600160a01b031681526020810191909152604001600020805460ff1916911515919091179055806112a88161245a565b915050611233565b600081815260046020526040902080546001600160a01b0319166001600160a01b03841690811790915581906112e582610b13565b6001600160a01b03167f8c5be1e5ebec7d5bd14f71427d1e84f3dd0314c0f7b2291e5b200ac8c7c3b92560405160405180910390a45050565b6000818152600260205260408120546001600160a01b03166113975760405162461bcd60e51b815260206004820152602c60248201527f4552433732313a206f70657261746f7220717565727920666f72206e6f6e657860448201526b34b9ba32b73a103a37b5b2b760a11b606482015260840161077d565b60006113a283610b13565b9050806001600160a01b0316846001600160a01b031614806113dd5750836001600160a01b03166113d284610708565b6001600160a01b0316145b8061140d57506001600160a01b0380821660009081526005602090815260408083209388168352929052205460ff165b949350505050565b826001600160a01b031661142882610b13565b6001600160a01b0316146114905760405162461bcd60e51b815260206004820152602960248201527f4552433732313a207472616e73666572206f6620746f6b656e2074686174206960448201526839903737ba1037bbb760b91b606482015260840161077d565b6001600160a01b0382166114f25760405162461bcd60e51b8152602060048201526024808201527f4552433732313a207472616e7366657220746f20746865207a65726f206164646044820152637265737360e01b606482015260840161077d565b6114fd6000826112b0565b6001600160a01b03831660009081526003602052604081208054600192906115269084906123dc565b90915550506001600160a01b0382166000908152600360205260408120805460019290611554908490612391565b909155505060008181526002602052604080822080546001600160a01b0319166001600160a01b0386811691821790925591518493918716917fddf252ad1be2c89b69c2b068fc378daa952ba7f163c4a11628f55a4df523b3ef91a4505050565b600260075414156116085760405162461bcd60e51b815260206004820152601f60248201527f5265656e7472616e637947756172643a207265656e7472616e742063616c6c00604482015260640161077d565b6002600755600c5460ff16156116605760405162461bcd60e51b815260206004820152601a60248201527f506c65617365207761697420756e74696c20756e706175736564000000000000604482015260640161077d565b600081116116b05760405162461bcd60e51b815260206004820152601760248201527f4d696e74206174206c65617374206f6e6520746f6b656e000000000000000000604482015260640161077d565b600f8111156116f35760405162461bcd60e51b815260206004820152600f60248201526e26b0bc10189a9020b63637bbb2b21760891b604482015260640161077d565b610dac8161170060085490565b61170a9190612391565b11156117695760405162461bcd60e51b815260206004820152602860248201527f4e6f7420656e6f75676820746f6b656e73206c65667420746f206d696e742074604482015267686174206d616e7960c01b606482015260840161077d565b60015b818111610e3957611781600880546001019055565b61178e33610e2260085490565b806117988161245a565b91505061176c565b600680546001600160a01b038381166001600160a01b0319831681179093556040519116919082907f8be0079c531659141344cd1fd0a4f28419497f9722a3daafe3b4186f6b6457e090600090a35050565b610b0f828260405180602001604052806000815250611a37565b816001600160a01b0316836001600160a01b0316141561186e5760405162461bcd60e51b815260206004820152601960248201527f4552433732313a20617070726f766520746f2063616c6c657200000000000000604482015260640161077d565b6001600160a01b03838116600081815260056020908152604080832094871680845294825291829020805460ff191686151590811790915591519182527f17307eab39ab6107e8899845ad3d59bd9653f200f220920489ca2b5937696c31910160405180910390a3505050565b6118e6848484611415565b6118f284848484611a6a565b610e8e5760405162461bcd60e51b815260040161077d90612288565b6060600980546106859061241f565b6060816119415750506040805180820190915260018152600360fc1b602082015290565b8160005b811561196b57806119558161245a565b91506119649050600a836123a9565b9150611945565b60008167ffffffffffffffff81111561199457634e487b7160e01b600052604160045260246000fd5b6040519080825280601f01601f1916602001820160405280156119be576020820181803683370190505b5090505b841561140d576119d36001836123dc565b91506119e0600a86612475565b6119eb906030612391565b60f81b818381518110611a0e57634e487b7160e01b600052603260045260246000fd5b60200101906001600160f81b031916908160001a905350611a30600a866123a9565b94506119c2565b611a418383611b77565b611a4e6000848484611a6a565b6108b35760405162461bcd60e51b815260040161077d90612288565b60006001600160a01b0384163b15611b6c57604051630a85bd0160e11b81526001600160a01b0385169063150b7a0290611aae903390899088908890600401612238565b602060405180830381600087803b158015611ac857600080fd5b505af1925050508015611af8575060408051601f3d908101601f19168201909252611af5918101906120f8565b60015b611b52573d808015611b26576040519150601f19603f3d011682016040523d82523d6000602084013e611b2b565b606091505b508051611b4a5760405162461bcd60e51b815260040161077d90612288565b805181602001fd5b6001600160e01b031916630a85bd0160e11b14905061140d565b506001949350505050565b6001600160a01b038216611bcd5760405162461bcd60e51b815260206004820181905260248201527f4552433732313a206d696e7420746f20746865207a65726f2061646472657373604482015260640161077d565b6000818152600260205260409020546001600160a01b031615611c325760405162461bcd60e51b815260206004820152601c60248201527f4552433732313a20746f6b656e20616c7265616479206d696e74656400000000604482015260640161077d565b6001600160a01b0382166000908152600360205260408120805460019290611c5b908490612391565b909155505060008181526002602052604080822080546001600160a01b0319166001600160a01b03861690811790915590518392907fddf252ad1be2c89b69c2b068fc378daa952ba7f163c4a11628f55a4df523b3ef908290a45050565b828054611cc59061241f565b90600052602060002090601f016020900481019282611ce75760008555611d2d565b82601f10611d005782800160ff19823516178555611d2d565b82800160010185558215611d2d579182015b82811115611d2d578235825591602001919060010190611d12565b50611d39929150611db1565b5090565b828054611d499061241f565b90600052602060002090601f016020900481019282611d6b5760008555611d2d565b82601f10611d8457805160ff1916838001178555611d2d565b82800160010185558215611d2d579182015b82811115611d2d578251825591602001919060010190611d96565b5b80821115611d395760008155600101611db2565b600067ffffffffffffffff831115611de057611de06124b5565b611df3601f8401601f1916602001612360565b9050828152838383011115611e0757600080fd5b828260208301376000602084830101529392505050565b80356001600160a01b0381168114611e3557600080fd5b919050565b80358015158114611e3557600080fd5b600060208284031215611e5b578081fd5b611e6482611e1e565b9392505050565b60008060408385031215611e7d578081fd5b611e8683611e1e565b9150611e9460208401611e1e565b90509250929050565b600080600060608486031215611eb1578081fd5b611eba84611e1e565b9250611ec860208501611e1e565b9150604084013590509250925092565b60008060008060808587031215611eed578081fd5b611ef685611e1e565b9350611f0460208601611e1e565b925060408501359150606085013567ffffffffffffffff811115611f26578182fd5b8501601f81018713611f36578182fd5b611f4587823560208401611dc6565b91505092959194509250565b60008060408385031215611f63578182fd5b611f6c83611e1e565b9150611e9460208401611e3a565b60008060408385031215611f8c578182fd5b611f9583611e1e565b946020939093013593505050565b60008060208385031215611fb5578182fd5b823567ffffffffffffffff80821115611fcc578384fd5b818501915085601f830112611fdf578384fd5b813581811115611fed578485fd5b8660208260051b8501011115612001578485fd5b60209290920196919550909350505050565b60006020808385031215612025578182fd5b823567ffffffffffffffff8082111561203c578384fd5b818501915085601f83011261204f578384fd5b813581811115612061576120616124b5565b8060051b9150612072848301612360565b8181528481019084860184860187018a101561208c578788fd5b8795505b838610156120b5576120a181611e1e565b835260019590950194918601918601612090565b5098975050505050505050565b6000602082840312156120d3578081fd5b611e6482611e3a565b6000602082840312156120ed578081fd5b8135611e64816124cb565b600060208284031215612109578081fd5b8151611e64816124cb565b60008060208385031215612126578182fd5b823567ffffffffffffffff8082111561213d578384fd5b818501915085601f830112612150578384fd5b81358181111561215e578485fd5b866020828501011115612001578485fd5b600060208284031215612180578081fd5b813567ffffffffffffffff811115612196578182fd5b8201601f810184136121a6578182fd5b61140d84823560208401611dc6565b6000602082840312156121c6578081fd5b5035919050565b600081518084526121e58160208601602086016123f3565b601f01601f19169290920160200192915050565b6000835161220b8184602088016123f3565b83519083019061221f8183602088016123f3565b64173539b7b760d91b9101908152600501949350505050565b6001600160a01b038581168252841660208201526040810183905260806060820181905260009061226b908301846121cd565b9695505050505050565b602081526000611e6460208301846121cd565b60208082526032908201527f4552433732313a207472616e7366657220746f206e6f6e20455243373231526560408201527131b2b4bb32b91034b6b83632b6b2b73a32b960711b606082015260800190565b6020808252818101527f4f776e61626c653a2063616c6c6572206973206e6f7420746865206f776e6572604082015260600190565b60208082526031908201527f4552433732313a207472616e736665722063616c6c6572206973206e6f74206f6040820152701ddb995c881b9bdc88185c1c1c9bdd9959607a1b606082015260800190565b604051601f8201601f1916810167ffffffffffffffff81118282101715612389576123896124b5565b604052919050565b600082198211156123a4576123a4612489565b500190565b6000826123b8576123b861249f565b500490565b60008160001904831182151516156123d7576123d7612489565b500290565b6000828210156123ee576123ee612489565b500390565b60005b8381101561240e5781810151838201526020016123f6565b83811115610e8e5750506000910152565b600181811c9082168061243357607f821691505b6020821081141561245457634e487b7160e01b600052602260045260246000fd5b50919050565b600060001982141561246e5761246e612489565b5060010190565b6000826124845761248461249f565b500690565b634e487b7160e01b600052601160045260246000fd5b634e487b7160e01b600052601260045260246000fd5b634e487b7160e01b600052604160045260246000fd5b6001600160e01b031981168114610a0e57600080fdfea2646970667358221220007870cc2cf75bc9c1d09eb5add814dca2d825c273bc94f1cfdc80e85ee6495e64736f6c63430008040033",
  "linkReferences": {},
  "deployedLinkReferences": {}
}